:020000040800F2
:10000000E80B0020CD010008D30600087B0600089D
:10001000D10600086D0400085F0C00080000000015
:10002000000000000000000000000000250700089C
:100030006D05000800000000D5060008150B00083B
:10004000E7010008E7010008E7010008E7010008F0
:10005000E7010008E7010008E70100086F05000854
:10006000E7010008E7010008E7010008E7010008D0
:10007000E7010008E7010008E7010008E7010008C0
:10008000E7010008E7010008E7010008E7010008B0
:10009000E7010008E7010008E7010008E7010008A0
:1000A000E7010008690B0008E7010008E701000804
:1000B000E7010008E7010008E7010008E701000880
:1000C000E7010008E7010008E7010008E701000870
:1000D000E7010008B50B0008E7010008E701000888
:1000E000E7010008E7010008E7010008E701000850
:1000F000E7010008E7010008E7010008E701000840
:10010000E7010008E7010008E7010008E70100082F
:10011000E7010008E7010008E7010008E70100081F
:10012000E7010008E7010008E7010008E70100080F
:1001300000F002F800F03AF80AA090E8000C8244BF
:100140008344AAF10107DA4501D100F02FF8AFF29C
:10015000090EBAE80F0013F0010F18BFFB1A43F0A5
:10016000010318479C160000BC160000103A24BF7B
:1001700078C878C1FAD8520724BF30C830C144BF0C
:1001800004680C607047000000230024002500264E
:10019000103A28BF78C1FBD8520728BF30C148BFEA
:1001A0000B6070471FB51FBD10B510BD00F0D2F831
:1001B0001146FFF7F7FF00F0F7FD00F0F0F803B489
:1001C000FFF7F2FF03BC00F04BFD00000948804739
:1001D00009480047FEE7FEE7FEE7FEE7FEE7FEE729
:1001E000FEE7FEE7FEE7FEE704480549054A064B41
:1001F00070470000190B000831010008E8050020D5
:10020000E80B0020E8070020E8070020704710B541
:100210004C1084EA530404D54042C1F1000138BFB8
:10022000491E1B4204D55242C3F1000338BF5B1E76
:1002300000F015F814F0804F04D04042C1F10001E5
:1002400038BF491E14F0004F04D05242C3F10003DE
:1002500038BF5B1E10BD704770477047704753EA48
:10026000020C00F069802DE9F04B4FF00006002BE6
:100270001FBFB3FA83F503FA05F424FA05F65E40CE
:1002800012BF1643B2FA82F502FA05F4C5F1200551
:100290001EBF22FA05FC44EA0C04203556EA044C41
:1002A0004FEA144418BF641C4FF000084FF00009D7
:1002B000904271EB030C39D3002919BFB1FA81F7D1
:1002C00001FA07F6B0FA80F700FA07F6C7F120073F
:1002D0001EBF20FA07FC46EA0C062037B6FBF4FCEA
:1002E000A7EB0507103F07F01F0BCBF120060CFA18
:1002F0000BFB2CFA06F644BFB3460026202FA4BF02
:100300005E464FF0000B5BEA060C08BF4FF0010B96
:1003100019EB0B09ABFB027C48EB0608C01B06FB84
:1003200002CC0BFB03CC71EB0C01C1E70B46024680
:1003300041464846BDE8F08B13B54FF000004FF042
:100340000001AFF30080BDE81C40704700487047D3
:10035000840500207546FFF7F9FFAE4605006946A3
:10036000534620F00700854618B020B5FFF73CFF44
:10037000BDE820404FF000064FF000074FF00008A6
:100380004FF0000B21F00701AC46ACE8C009ACE827
:10039000C009ACE8C009ACE8C0098D46704710B58B
:1003A0000446AFF300802046BDE81040FFF707BFCA
:1003B000054910B54978002011B1322000F084FBC6
:1003C000C0F30E0010BD00001A0000202DE9F04718
:1003D000204E07460D46707860B1C7F309042046E9
:1003E00000F008FD8146204600F066FC04463078A7
:1003F00048B109E00021084600F0F4FC032000F0B9
:1004000031FC032020E06442484600F0B5FC68431C
:1004100040F6E448B0FBF8F086B2204600F0ACFCB1
:100420006843B0FBF8F081B2304600F0DBFCB9F174
:10043000000F01DD012000E0002000F013FC002C83
:1004400001DD012000E0002000F020FC3846BDE87E
:10045000F08700001C00002080F001024FF40051E2
:10046000014800F005B9000000100140FEE700005F
:100470000749097849B120F00101064A00F001005E
:10048000895A01EB400080B2704700F005B80000C7
:100490001E000020008000082DE9F0470546314885
:1004A000002401882846A94201DD00F500452E48B8
:1004B000078881464FF4804805E039F824704846A3
:1004C00001D1068802E000EB84018E88B81B00F0A1
:1004D00053FC404506DDB74202DA07F5004701E06C
:1004E00006F50046BD4201DBB54203DDB54233DB14
:1004F000BD4231DCE0170104200441EA14418030A0
:100500004FF4807941F100014A460023FFF77FFE56
:100510008046641CE0170104200441EA1441803045
:1005200041F100014A460023FFF771FEA0EB0803EA
:10053000E91BF21B594301EB620191FBF2F111EB54
:10054000080001D500F58030B0F5803F01DBA0F553
:10055000803080B2BDE8F087641CFF2CADDD4FF029
:100560000000F7E7027E000848010020704710B540
:10057000022000F011F8002806D0022000F006F852
:10058000BDE8104000F0DABB10BD00000149086072
:100590007047000014040140064A0146002012681A
:1005A000044B0A4014331B680B4202D0002A00D0CF
:1005B0000120704700040140F0B5CA78002502F020
:1005C0000F03D20601D58A7813430A784FF00F0E35
:1005D00012F0FF0F4FF001021CD004680F8802FADE
:1005E00005F63740B74211D14FEA850C0EFA0CF7E9
:1005F00024EA070703FA0CF43C43CF78282F02D0F3
:10060000482F02D002E0466100E006616D1C082D13
:10061000E4D304600C88FF2C1ED944685FF0000608
:1006200006F1080702FA07F50F882F40AF420FD1F5
:100630004FEA860C0EFA0CF7BC4303FA0CF73C4366
:10064000CF78282F00D14561CF78482F00D10561A0
:10065000761C082EE4D34460F0BD02460020926868
:100660000A4200D001207047416170470161704724
:100670000AB10161704741617047FEE738B5012159
:10068000242000F029F84FF48074ADF800401020C9
:100690008DF8030003200C4D8DF8020069462846B2
:1006A000FFF78AFF21462846FFF7E0FF0420074CAA
:1006B000ADF8000069462046FFF77EFF0421204682
:1006C000FFF7D4FF38BD00000008014000140140CE
:1006D000FEE7704770470000044A0029916901D085
:1006E000014300E081439161704700000010024027
:1006F00010B500224FF4C87303E0521C92B29A4224
:1007000009D20489A407F8D58181002105E0491C9C
:1007100089B2994201D3002010BD0289D207F6D0D8
:10072000808910BD704700000CB50021264801915A
:100730000091026842F4803202604FF4A0630268C4
:1007400002F400320092019A521C0192009A12B9EE
:10075000019A9A42F3D10268920333D501210091A4
:100760001A490A6842F010020A600A6822F003027D
:100770000A600A6842F002020A604168416041680A
:100780004160416841F480614160416821F47C111D
:100790004160416841F4E8114160016841F08071B5
:1007A000016001688901FCD5416821F003014160C5
:1007B000416841F0020141604168C1F381010229B1
:1007C000FAD10CBD00910CBD001002400020024087
:1007D00070B500F04BF814498A6ACB6A92B2821A5B
:1007E000B2F5004F07DD8B6ACC6A104D5B1944F1FE
:1007F000FF348B62CC6212F5004F08DA8A6ACC6A49
:100800004FF48033D31844F100028B62CA628B6AC2
:10081000CA6A6FF30F03034342EAE0728B62CA6253
:10082000886AC96A70BD0000280000200000FFFF30
:1008300070B50C488168826989080024C069A1FBF1
:10084000023504FB025201FB0021074AD088D288FE
:10085000C008C417181861419208D317FFF7D7FCD6
:1008600070BD0000280000204805002010B50320BE
:1008700000F050F8BDE81040FFF7FABD82B205481D
:10088000C088C00850431030C21700EBD26040113E
:10089000FFF79CBD480500202DE9F04700F070FAF5
:1008A0001B4EB369F269C0185141B061F161FFF7A5
:1008B000BFFF07468946FFF78BFF0D46316B0446A5
:1008C000736B1F22A1FB020803FB02824FF0000C96
:1008D00001FB0C2C1021621845F1000180184CEB33
:1008E000010120220023FFF792FC30637163306B1B
:1008F000716B201A00D540421B2801DA346B756BEE
:1009000022462B4638464946BDE8F04700F042B83B
:10091000280000202DE9F04700248246264625467F
:10092000A046274620E0A146FFF742FD044617B93E
:1009300081464E463546A9EB040000F01DFAB0F59D
:10094000804F06DDA14502DD04F5004401E0A4F579
:100950000044AC4200DD2546B44200DA264607F1E9
:10096000010718EB0408BFB25745DCD3B8EB06000B
:10097000411BAAF1020091FBF0F0B0F5004F01D34A
:10098000A0F50040002801DA00F5004080B2BDE883
:10099000F08700002DE9F047494F9246BA78002AC7
:1009A00076D0DFF82091B0EB0A0561EB0304D9F8AB
:1009B0000400A0FB0513C21702FB053200FB042054
:1009C000D7E9102389185841C7E910108E0A46EA62
:1009D0008056304600F0D0F9F96888420CDDF8689E
:1009E000864202DDFE68F86803E0F8684642F8686F
:1009F0004042C117C7E91001D9F80800D7E90E2312
:100A0000C117B5EB020C64EB0302A0FB0C3801FB31
:100A10000C8100FB0210810541EA9320D9F80010F7
:100A2000A1FB053CCA1702FB05C201FB04218A0594
:100A300042EA932189194618304600F09DF9F96879
:100A4000884207DDF96838468E4201DDC66801E05C
:100A5000C0684642304600F08FF9DFF86890804663
:100A6000A9F11609B9F80010B9F80200081A00F047
:100A700083F908FB00F8F86898FBF0F1B9F8020078
:100A800001441AEB0600FFF7F9FEC7E90E547D603A
:100A9000B96B3846002900DA49420A4A0C3A928872
:100AA0009142016906DD491C39612E2906DD0120CC
:100AB000BDE8F087002901DD491E39610020F7E714
:100AC000280000205E05002070B58006094E840CC9
:100AD0004FF4805529463046FFF7C6FD21460648AB
:100AE000FFF706FE044629463046FFF7BFFD2046C5
:100AF00070BD0000000C0140003800404FF0E021C4
:100B00000428086903D020F004000861704740F011
:100B10000400FAE7704700000F4810B5016841F083
:100B20000101016041680D4A1140416001680C4AB1
:100B300011400160016821F480210160416821F4C5
:100B4000FE0141604FF41F018160FFF7EDFD054993
:100B50004FF00060086010BD001002400000FFF878
:100B6000FFFFF6FE08ED00E010B5094C012120461C
:100B700000F013F8002809D0FFF78EFEFFF76CFC99
:100B80002046BDE81040012100F004B810BD00006F
:100B9000002C0140C9430182704702460020138A9D
:100BA00092890B4202EA010202D0002A00D0012001
:100BB0007047000070B5154C40F22551204600F0FA
:100BC0002BF800280ED0204600F045F8C2B210489D
:100BD00001880B0406D44C044FF0000306D50A2A02
:100BE00001D0038070BD41F400410DE00D2A09D011
:100BF000C1F30D04074D491C89B22A550180C7294C
:100C0000EFD870BD41F48041018070BD00380140D3
:100C1000180000208000002030B501F01F020124E0
:100C20000025C1F3421304FA02F2012B0FD0022B6C
:100C30000FD0838A4FEA11210088134204FA01F48D
:100C400000EA040001D000B10125284630BD8389A7
:100C5000F0E7038AEEE78088C0F308007047FEE7FC
:100C60007047000010B5084C40218022231D30B190
:100C7000012806D0032801D119601A6010BD216037
:100C8000FBE71960226010BD100C014010B54FF455
:100C90008071084C4A00231D30B1012806D003287A
:100CA00001D119601A6010BD2160FBE71960226054
:100CB00010BD0000100C014000F58070024980B2A8
:100CC00031F9100070470000000E000810B56FF0F9
:100CD0000400FFF713FF094809490068B0FBF1F071
:100CE000C1B2084801EB41020170C2EBC1114FF6DD
:100CF000FF7202EAC101418010BD00000000002027
:100D000000127A00140000200B49498848434FF034
:100D1000E021486100228A61086940F00100086111
:100D20000869C30701D0C003FAD5086920F00100A3
:100D300008618A61704700001400002010B500248B
:100D400002210B48FFF789FC00B101240948006823
:100D500081784FF0804021B12CB1018821F0100141
:100D600004E0002CF9D0018841F01001018010BD91
:100D70000008014020000020C1174840401A704779
:100D800030B54FF08040838C064A10889568181A59
:100D900000B2D468C1172D184C419560D4601380FF
:100DA00030BD000070000020FFF790FFFFF766FCE9
:100DB00000240A4D0A4F01264FF49678C5F8A04149
:100DC000C7F888614046FFF79FFFC5F8A061C7F8E4
:100DD00088414046FFF798FFF0E7000000002142FD
:100DE00000802242024A1080101D018070470000DE
:100DF0003C040040014931F910007047000E000822
:100E000000000300060009000D001000130016008A
:100E100019001C001F002200260029002C002F00B2
:100E20003200350038003B003F00420045004800DA
:100E30004B004E005100540057005A005E00610004
:100E4000640067006A006D0070007300760079002E
:100E50007C007F008200850088008B008E0091005E
:100E6000940097009A009D00A000A300A600A9008E
:100E7000AC00AF00B200B500B800BB00BE00C100BE
:100E8000C400C600C900CC00CF00D200D500D800F5
:100E9000DA00DD00E000E300E600E900EB00EE0030
:100EA000F100F400F600F900FC00FF00010104016C
:100EB000070109010C010F011101140117011901AA
:100EC0001C011E0121012401260129012B012E01F3
:100ED00030013301350138013A013D013F01420142
:100EE0004401470149014B014E0150015201550196
:100EF000570159015C015E016001630165016701F1
:100F000069016C016E017001720174017601790151
:100F10007B017D017F0181018301850187018901B9
:100F20008B018D018F019101930195019701990129
:100F30009A019C019E01A001A201A401A501A701A3
:100F4000A901AB01AC01AE01B001B101B301B50122
:100F5000B601B801B901BB01BD01BE01C001C101AB
:100F6000C301C401C601C701C801CA01CB01CD013B
:100F7000CE01CF01D101D201D301D401D601D701D5
:100F8000D801D901DA01DC01DD01DE01DF01E00178
:100F9000E101E201E301E401E501E601E701E80125
:100FA000E901EA01EB01EC01EC01ED01EE01EF01D9
:100FB000F001F001F101F201F301F301F401F50197
:100FC000F501F601F601F701F701F801F901F90160
:100FD000F901FA01FA01FB01FB01FC01FC01FC0132
:100FE000FD01FD01FD01FD01FE01FE01FE01FE010D
:100FF000FE01FF01FF01FF01FF01FF01FF01FF01F2
:10100000FF01FF01FF01FF01FF01FF01FF01FF01E0
:10101000FE01FE01FE01FE01FE01FD01FD01FD01DB
:10102000FD01FC01FC01FC01FB01FB01FA01FA01DD
:10103000F901F901F901F801F701F701F601F601EB
:10104000F501F501F401F301F301F201F101F00101
:10105000F001EF01EE01ED01EC01EC01EB01EA0121
:10106000E901E801E701E601E501E401E301E2014C
:10107000E101E001DF01DE01DD01DC01DA01D9017E
:10108000D801D701D601D401D301D201D101CF01BA
:10109000CE01CD01CB01CA01C801C701C601C401FF
:1010A000C301C101C001BE01BD01BB01B901B8014D
:1010B000B601B501B301B101B001AE01AC01AB01A4
:1010C000A901A701A501A401A201A0019E019C0103
:1010D0009A01990197019501930191018F018D0169
:1010E0008B01890187018501830181017F017D01D8
:1010F0007B01790176017401720170016E016C014E
:10110000690167016501630160015E015C015901CC
:1011100057015501520150014E014B014901470150
:10112000440142013F013D013A01380135013301DB
:1011300030012E012B0129012601240121011E016C
:101140001C0119011701140111010F010C01090102
:10115000070104010101FF00FC00F900F600F400A2
:10116000F100EE00EB00E900E600E300E000DD0046
:10117000DA00D800D500D200CF00CC00C900C600EC
:10118000C400C100BE00BB00B800B500B200AF0093
:10119000AC00A900A600A300A0009D009A00970043
:1011A000940091008E008B008800850082007F00F3
:1011B0007C0079007600730070006D006A006700A3
:1011C000640061005E005A005700540051004E0058
:1011D0004B004800450042003F003B00380035000E
:1011E00032002F002C002900260022001F001C00C6
:1011F00019001600130010000D000900060003007E
:101200000000FDFFFAFFF7FFF3FFF0FFEDFFEAFF3D
:10121000E7FFE4FFE1FFDEFFDAFFD7FFD4FFD1FFF6
:10122000CEFFCBFFC8FFC5FFC1FFBEFFBBFFB8FFAE
:10123000B5FFB2FFAFFFACFFA9FFA6FFA2FF9FFF64
:101240009CFF99FF96FF93FF90FF8DFF8AFF87FF1A
:1012500084FF81FF7EFF7BFF78FF75FF72FF6FFFCA
:101260006CFF69FF66FF63FF60FF5DFF5AFF57FF7A
:1012700054FF51FF4EFF4BFF48FF45FF42FF3FFF2A
:101280003CFF3AFF37FF34FF31FF2EFF2BFF28FFD3
:1012900026FF23FF20FF1DFF1AFF17FF15FF12FF78
:1012A0000FFF0CFF0AFF07FF04FF01FFFFFEFCFE1C
:1012B000F9FEF7FEF4FEF1FEEFFEECFEE9FEE7FEBE
:1012C000E4FEE2FEDFFEDCFEDAFED7FED5FED2FE55
:1012D000D0FECDFECBFEC8FEC6FEC3FEC1FEBEFEE6
:1012E000BCFEB9FEB7FEB5FEB2FEB0FEAEFEABFE72
:1012F000A9FEA7FEA4FEA2FEA0FE9DFE9BFE99FEF7
:1013000097FE94FE92FE90FE8EFE8CFE8AFE87FE75
:1013100085FE83FE81FE7FFE7DFE7BFE79FE77FEED
:1013200075FE73FE71FE6FFE6DFE6BFE69FE67FE5D
:1013300066FE64FE62FE60FE5EFE5CFE5BFE59FEC3
:1013400057FE55FE54FE52FE50FE4FFE4DFE4BFE24
:101350004AFE48FE47FE45FE43FE42FE40FE3FFE7B
:101360003DFE3CFE3AFE39FE38FE36FE35FE33FECB
:1013700032FE31FE2FFE2EFE2DFE2CFE2AFE29FE11
:1013800028FE27FE26FE24FE23FE22FE21FE20FE4E
:101390001FFE1EFE1DFE1CFE1BFE1AFE19FE18FE81
:1013A00017FE16FE15FE14FE14FE13FE12FE11FEAD
:1013B00010FE10FE0FFE0EFE0DFE0DFE0CFE0BFECF
:1013C0000BFE0AFE0AFE09FE09FE08FE07FE07FEE6
:1013D00007FE06FE06FE05FE05FE04FE04FE04FEF4
:1013E00003FE03FE03FE03FE02FE02FE02FE02FEF9
:1013F00002FE01FE01FE01FE01FE01FE01FE01FEF4
:1014000001FE01FE01FE01FE01FE01FE01FE01FEE4
:1014100002FE02FE02FE02FE02FE03FE03FE03FEC9
:1014200003FE04FE04FE04FE05FE05FE06FE06FEA7
:1014300007FE07FE07FE08FE09FE09FE0AFE0AFE79
:101440000BFE0BFE0CFE0DFE0DFE0EFE0FFE10FE43
:1014500010FE11FE12FE13FE14FE14FE15FE16FE03
:1014600017FE18FE19FE1AFE1BFE1CFE1DFE1EFEB8
:101470001FFE20FE21FE22FE23FE24FE26FE27FE66
:1014800028FE29FE2AFE2CFE2DFE2EFE2FFE31FE0A
:1014900032FE33FE35FE36FE38FE39FE3AFE3CFEA5
:1014A0003DFE3FFE40FE42FE43FE45FE47FE48FE37
:1014B0004AFE4BFE4DFE4FFE50FE52FE54FE55FEC0
:1014C00057FE59FE5BFE5CFE5EFE60FE62FE64FE41
:1014D00066FE67FE69FE6BFE6DFE6FFE71FE73FEBB
:1014E00075FE77FE79FE7BFE7DFE7FFE81FE83FE2C
:1014F00085FE87FE8AFE8CFE8EFE90FE92FE94FE96
:1015000097FE99FE9BFE9DFEA0FEA2FEA4FEA7FEF6
:10151000A9FEABFEAEFEB0FEB2FEB5FEB7FEB9FE52
:10152000BCFEBEFEC1FEC3FEC6FEC8FECBFECDFEA7
:10153000D0FED2FED5FED7FEDAFEDCFEDFFEE2FEF6
:10154000E4FEE7FEE9FEECFEEFFEF1FEF4FEF7FE40
:10155000F9FEFCFEFFFE01FF04FF07FF0AFF0CFF80
:101560000FFF12FF15FF17FF1AFF1DFF20FF23FFBC
:1015700026FF28FF2BFF2EFF31FF34FF37FF3AFFF6
:101580003CFF3FFF42FF45FF48FF4BFF4EFF51FF2F
:1015900054FF57FF5AFF5DFF60FF63FF66FF69FF5F
:1015A0006CFF6FFF72FF75FF78FF7BFF7EFF81FF8F
:1015B00084FF87FF8AFF8DFF90FF93FF96FF99FFBF
:1015C0009CFF9FFFA2FFA6FFA9FFACFFAFFFB2FFEA
:1015D000B5FFB8FFBBFFBEFFC1FFC5FFC8FFCBFF14
:1015E000CEFFD1FFD4FFD7FFDAFFDEFFE1FFE4FF3C
:1015F000E7FFEAFFEDFFF0FFF3FFF7FFFAFFFDFF64
:1016000000000300060009000D0010001300160082
:1016100019001C001F002200260029002C002F00AA
:101620003200350038003B003F00420045004800D2
:101630004B004E005100540057005A005E006100FC
:10164000640067006A006D00700073007600790026
:101650007C007F008200850088008B008E00910056
:10166000940097009A009D00A000A300A600A90086
:10167000AC00AF00B200B500B800BB00BE00C100B6
:10168000C400C600C900CC00CF00D200D500D800ED
:10169000DA00DD00E000E300E600E900EB00EE0028
:1016A000F100F400F600F900FC00FF000101040164
:1016B000070109010C010F011101140117011901A2
:1016C0001C011E0121012401260129012B012E01EB
:1016D00030013301350138013A013D013F0142013A
:1016E0004401470149014B014E015001520155018E
:1016F000570159015C015E016001630165016701E9
:1017000069016C016E017001720174017601790149
:101710007B017D017F0181018301850187018901B1
:101720008B018D018F019101930195019701990121
:101730009A019C019E01A001A201A401A501A7019B
:10174000A901AB01AC01AE01B001B101B301B5011A
:10175000B601B801B901BB01BD01BE01C001C101A3
:10176000C301C401C601C701C801CA01CB01CD0133
:10177000CE01CF01D101D201D301D401D601D701CD
:10178000D801D901DA01DC01DD01DE01DF01E00170
:10179000E101E201E301E401E501E601E701E8011D
:1017A000E901EA01EB01EC01EC01ED01EE01EF01D1
:1017B000F001F001F101F201F301F301F401F5018F
:1017C000F501F601F601F701F701F801F901F90158
:1017D000F901FA01FA01FB01FB01FC01FC01FC012A
:1017E000FD01FD01FD01FD01FE01FE01FE01FE0105
:1017F000FE01FF01FF01FF01FF01FF01FF01FF01EA
:101800002018000800000020800000006C01000883
:10181000A018000880000020680B00008801000864
:1018200000A24A04000000000000000001020304BE
:101830000607080900000000000000010101000087
:101840000078000800000000010000000000000017
:101850000010000047010000000000000000000030
:101860000000000000000000000000000000000078
:101870000000000000000000000000000000000068
:101880000000000000000000000000000000000058
:101890000000000000000000000000000000000048
:0400000508000131BD
:00000001FF
